{"abi":[{"type":"function","name":"setValues","inputs":[{"name":"_one","type":"uint8","internalType":"uint8"},{"name":"_two","type":"uint256","internalType":"uint256"},{"name":"_three","type":"bytes18","internalType":"bytes18"},{"name":"_four","type":"uint8[30]","internalType":"uint8[30]"},{"name":"_five","type":"bytes14","internalType":"bytes14"},{"name":"_six","type":"uint8","internalType":"uint8"}],"outputs":[],"stateMutability":"nonpayable"}],"bytecode":{"object":"0x6080604052348015600f57600080fd5b506102448061001f6000396000f3fe608060405234801561001057600080fd5b506004361061002b5760003560e01c80639e11458914610030575b600080fd5b61004361003e366004610174565b610045565b005b6000805460ff191660ff88161790556001859055600280546001600160901b031916607086901c17905561007c600384601e6100b3565b506004805460ff909216600160701b026effffffffffffffffffffffffffffff1990921660909390931c9290921717905550505050565b6001830191839082156101395791602002820160005b8382111561010a57833560ff1683826101000a81548160ff021916908360ff16021790555092602001926001016020816000010492830192600103026100c9565b80156101375782816101000a81549060ff021916905560010160208160000104928301926001030261010a565b505b50610145929150610149565b5090565b5b80821115610145576000815560010161014a565b803560ff8116811461016f57600080fd5b919050565b600080600080600080610460878903121561018e57600080fd5b6101978761015e565b95506020870135945060408701356dffffffffffffffffffffffffffff19811681146101c257600080fd5b93506104208701888111156101d657600080fd5b606088019350356001600160901b0319811681146101f357600080fd5b9150610202610440880161015e565b9050929550929550929556fea264697066735822122063d3422642064b27ec709cec1c53e9ed97f3be5365540e4ce955d88271a6d52164736f6c634300081b0033","linkReferences":{}},"methodIdentifiers":{"setValues(uint8,uint256,bytes18,uint8[30],bytes14,uint8)":"9e114589"},"id":23}