{"abi":[{"type":"function","name":"setValues","inputs":[{"name":"_one","type":"uint8","internalType":"uint8"},{"name":"_two","type":"uint256","internalType":"uint256"},{"name":"_three","type":"bytes18","internalType":"bytes18"},{"name":"_four","type":"uint8[30]","internalType":"uint8[30]"},{"name":"_five","type":"bytes14","internalType":"bytes14"},{"name":"_six","type":"uint8","internalType":"uint8"}],"outputs":[],"stateMutability":"nonpayable"}],"bytecode":{"object":"0x6080604052348015600f57600080fd5b5061022b8061001f6000396000f3fe608060405234801561001057600080fd5b506004361061002b5760003560e01c80639e11458914610030575b600080fd5b61004361003e366004610150565b610045565b005b6000859055609082901c600160901b02607085901c176001556002805460ff8381166101000261ffff1990921690891617179055610086600384601e61008f565b50505050505050565b6001830191839082156101155791602002820160005b838211156100e657833560ff1683826101000a81548160ff021916908360ff16021790555092602001926001016020816000010492830192600103026100a5565b80156101135782816101000a81549060ff02191690556001016020816000010492830192600103026100e6565b505b50610121929150610125565b5090565b5b808211156101215760008155600101610126565b803560ff8116811461014b57600080fd5b919050565b600080600080600080610460878903121561016a57600080fd5b6101738761013a565b95506020870135945060408701356dffffffffffffffffffffffffffff198116811461019e57600080fd5b93506104208701888111156101b257600080fd5b6060880193503571ffffffffffffffffffffffffffffffffffff19811681146101da57600080fd5b91506101e9610440880161013a565b9050929550929550929556fea264697066735822122076bc2fa0cacf719f14ba4bc560a9d8734887a60b9ee410e86e74fefde6a1e7d364736f6c634300081b0033","linkReferences":{}},"methodIdentifiers":{"setValues(uint8,uint256,bytes18,uint8[30],bytes14,uint8)":"9e114589"},"id":23}