{"abi":[{"type":"function","name":"loopDoWhile","inputs":[],"outputs":[],"stateMutability":"pure"},{"type":"function","name":"loopFor","inputs":[],"outputs":[],"stateMutability":"pure"},{"type":"function","name":"loopWhile","inputs":[],"outputs":[],"stateMutability":"pure"}],"bytecode":{"object":"0x6080604052348015600f57600080fd5b50607980601d6000396000f3fe6080604052348015600f57600080fd5b5060043610603c5760003560e01c80633a792393146041578063519c135714604157806396719728146041575b600080fd5b00fea2646970667358221220bbff66ec31b767b51da1e1220b21a9018a7be2b6f009d884a1acbcd0ef1d34d364736f6c634300081b0033","linkReferences":{}},"methodIdentifiers":{"loopDoWhile()":"96719728","loopFor()":"519c1357","loopWhile()":"3a792393"},"id":23}