{"abi":[{"type":"function","name":"initArray","inputs":[],"outputs":[],"stateMutability":"nonpayable"}],"bytecode":{"object":"0x6080604052348015600f57600080fd5b5060b180601d6000396000f3fe6080604052348015600f57600080fd5b506004361060285760003560e01c806382a8181b14602d575b600080fd5b60336035565b005b60005b60c881101560785760008054600181810183559180527f290decd9548b62a8d60345a988386fc84ba6bc95484008f6362f93160ef3e56301829055016038565b5056fea2646970667358221220c2a61303fd4e7955499072c042f4f39c59786d843fb6f615570d57c28b4580d464736f6c634300081b0033","linkReferences":{}},"methodIdentifiers":{"initArray()":"82a8181b"},"id":23}