{"abi":[{"type":"function","name":"initArray","inputs":[],"outputs":[],"stateMutability":"nonpayable"}],"bytecode":{"object":"0x6080604052348015600f57600080fd5b50606580601d6000396000f3fe6080604052348015600f57600080fd5b506004361060285760003560e01c806382a8181b14602d575b600080fd5b00fea2646970667358221220e237d2c8f57853b647091f2ef845f37fb16bf02806a8445cab7d0d2a4bde582564736f6c634300081b0033","linkReferences":{}},"methodIdentifiers":{"initArray()":"82a8181b"},"id":23}