{"abi":[{"type":"function","name":"call","inputs":[{"name":"number","type":"uint256","internalType":"uint256"}],"outputs":[{"name":"flag","type":"bool","internalType":"bool"}],"stateMutability":"pure"}],"bytecode":{"object":"0x6080604052348015600f57600080fd5b5060c080601d6000396000f3fe6080604052348015600f57600080fd5b506004361060285760003560e01c80632b09692614602d575b600080fd5b603c60383660046072565b6050565b604051901515815260200160405180910390f35b600080821180156061575081603214155b8015606c5750606482105b92915050565b600060208284031215608357600080fd5b503591905056fea2646970667358221220287bcee5d91f1ee57ba1d5810e33e31a2de3576a8eca3840a3d2793e05e2e54264736f6c634300081b0033","linkReferences":{}},"methodIdentifiers":{"call(uint256)":"2b096926"},"id":24}