{"abi":[{"type":"function","name":"add","inputs":[{"name":"myArray","type":"uint256[]","internalType":"uint256[]"}],"outputs":[{"name":"sum","type":"uint256","internalType":"uint256"}],"stateMutability":"pure"}],"bytecode":{"object":"0x6080604052348015600f57600080fd5b506101828061001f6000396000f3fe608060405234801561001057600080fd5b506004361061002b5760003560e01c806310b0b5d514610030575b600080fd5b61004361003e366004610098565b610055565b60405190815260200160405180910390f35b600081815b81811015610090578484828181106100745761007461010f565b90506020020135836100869190610125565b925060010161005a565b505092915050565b600080602083850312156100ab57600080fd5b823567ffffffffffffffff8111156100c257600080fd5b8301601f810185136100d357600080fd5b803567ffffffffffffffff8111156100ea57600080fd5b8560208260051b84010111156100ff57600080fd5b6020919091019590945092505050565b634e487b7160e01b600052603260045260246000fd5b8082018082111561014657634e487b7160e01b600052601160045260246000fd5b9291505056fea2646970667358221220b4ac7fa8de1d1b33eccd5acbe92613296f904dc6b736ecdd92447398137daddd64736f6c634300081b0033","linkReferences":{}},"methodIdentifiers":{"add(uint256[])":"10b0b5d5"},"id":23}