{"abi":[{"type":"constructor","inputs":[],"stateMutability":"nonpayable"},{"type":"function","name":"call","inputs":[],"outputs":[],"stateMutability":"view"}],"bytecode":{"object":"0x6080604052348015600f57600080fd5b50600080546001600160a01b0319163317905560ca80602f6000396000f3fe6080604052348015600f57600080fd5b506004361060285760003560e01c806328b5e32b14602d575b600080fd5b60336035565b005b6000546001600160a01b0316331460925760405162461bcd60e51b815260206004820152601b60248201527f4572726f723a20596f7520617265206e6f742061206f776e6572210000000000604482015260640160405180910390fd5b56fea2646970667358221220de9c9769f9f1dd06d1f02d13544c6cb5e1b149a5dbdd5d2ec1c673491e3bc67d64736f6c634300081b0033","linkReferences":{}},"methodIdentifiers":{"call()":"28b5e32b"},"id":23}