{"abi":[{"type":"constructor","inputs":[],"stateMutability":"nonpayable"},{"type":"function","name":"call","inputs":[],"outputs":[],"stateMutability":"view"},{"type":"error","name":"NotOwner","inputs":[]}],"bytecode":{"object":"0x6080604052348015600f57600080fd5b50600080546001600160a01b03191633179055609780602f6000396000f3fe6080604052348015600f57600080fd5b506004361060285760003560e01c806328b5e32b14602d575b600080fd5b60336035565b005b6000546001600160a01b03163314605f576040516330cd747160e01b815260040160405180910390fd5b56fea26469706673582212201407831c09118a50f962030ce76eb1cea85c9853d9712ea83279128bd52a19ba64736f6c634300081b0033","linkReferences":{}},"methodIdentifiers":{"call()":"28b5e32b"},"id":23}