{"abi":[{"type":"function","name":"addition","inputs":[{"name":"value","type":"uint256","internalType":"uint256"}],"outputs":[],"stateMutability":"nonpayable"}],"bytecode":{"object":"0x60806040526001600055348015601457600080fd5b5060938060226000396000f3fe6080604052348015600f57600080fd5b506004361060285760003560e01c8063543209b714602d575b600080fd5b604360383660046045565b600080549091019055565b005b600060208284031215605657600080fd5b503591905056fea2646970667358221220368026f234ddbf7b2cbf461501380f2f1d7676140eeb61fa896a1c11ad28243464736f6c634300081b0033","linkReferences":{}},"methodIdentifiers":{"addition(uint256)":"543209b7"},"id":23}