{"abi":[{"type":"function","name":"divisionBy128","inputs":[{"name":"number","type":"uint256","internalType":"uint256"}],"outputs":[{"name":"","type":"uint256","internalType":"uint256"}],"stateMutability":"pure"},{"type":"function","name":"divisionBy2","inputs":[{"name":"number","type":"uint256","internalType":"uint256"}],"outputs":[{"name":"","type":"uint256","internalType":"uint256"}],"stateMutability":"pure"}],"bytecode":{"object":"0x6080604052348015600f57600080fd5b5060b980601d6000396000f3fe6080604052348015600f57600080fd5b506004361060325760003560e01c80630353b6211460375780633c45444b14605a575b600080fd5b60486042366004606b565b60071c90565b60405190815260200160405180910390f35b60486065366004606b565b60011c90565b600060208284031215607c57600080fd5b503591905056fea2646970667358221220c155f158cfd5b6d9d47670fa95b80745209848875aa0ab81cfec5f12024e707764736f6c634300081b0033","linkReferences":{}},"methodIdentifiers":{"divisionBy128(uint256)":"0353b621","divisionBy2(uint256)":"3c45444b"},"id":23}