{"abi":[{"type":"function","name":"subtraction","inputs":[{"name":"value","type":"uint256","internalType":"uint256"}],"outputs":[],"stateMutability":"nonpayable"}],"bytecode":{"object":"0x60806040526064600055348015601457600080fd5b5060948060226000396000f3fe6080604052348015600f57600080fd5b506004361060285760003560e01c80636401557d14602d575b600080fd5b604460383660046046565b60008054919091039055565b005b600060208284031215605757600080fd5b503591905056fea26469706673582212202658f05e2d1b890024097ec6df8666b3bc74040866fd879361872a4e7a23e75f64736f6c634300081b0033","linkReferences":{}},"methodIdentifiers":{"subtraction(uint256)":"6401557d"},"id":23}